:020000040800F2
:10000000500500209D010008B32600084720000885
:10001000B12600083B080008ED2B00080000000096
:10002000000000000000000000000000D7260008CB
:10003000AF08000800000000D5260008D9260008F7
:10004000B7010008B7010008B7010008B7010008B0
:10005000B7010008B7010008B7010008B7010008A0
:10006000B7010008B7010008B7010008B701000890
:10007000B7010008B7010008B7010008B701000880
:10008000B7010008B7010008B7010008B701000870
:10009000B7010008B7010008B7010008B701000860
:1000A000B7010008B7010008B7010008B701000850
:1000B000B7010008B7010008B7010008B701000840
:1000C000B7010008B7010008B7010008B701000830
:1000D000B7010008B7010008B7010008B701000820
:1000E000B7010008B7010008B7010008B701000810
:1000F000B7010008B7010008B7010008B701000800
:10010000000000000000000000000000B70100082F
:10011000B7010008B7010008B7010008B7010008DF
:10012000B7010008B70100083D080008B701000842
:10013000B7010008B701000800000000000000003F
:10014000B7010008B7010008B7010008000000006F
:10015000000000000000000000000000000000009F
:100160000000000000000000B7010008B70100080F
:10017000B7010008000000000000000000000000BF
:1001800000000000B7010008DFF80CD000F022FBEF
:1001900000480047493700085005002006488047BE
:1001A00006480047FEE7FEE7FEE7FEE7FEE7FEE75C
:1001B000FEE7FEE7FEE7FEE7692700088901000881
:1001C000202A04DB203A21FA02F00021704721FAAC
:1001D00002F3D040C2F12002914008431946704713
:1001E000421E12F8013F002BFBD111F8013B02F82F
:1001F000013B002BF9D1704730B505462A460B4626
:1002000012F8010B13F8014B08B1A042F8D01CB151
:10021000002802D06D1CF1E7284630BD034611F8D6
:10022000012B00F8012B002AF9D1184670472DE95F
:10023000FE4F81EA030404F0004421F000410094E1
:100240004FF0000B23F0004350EA01045ED052EA65
:1002500003045BD0C3F30A54C1F30A552C44A4F23F
:10026000F3340194A0FB0254C1F3130141F4801153
:10027000C3F3130343F4801301FB024400FB034E5A
:10028000840A970A44EA815447EA8357A4FB076823
:1002900002958D0A05FB07854FEA932C04FB0C544D
:1002A0002705029D4FEA065847EA1637B5EB0805C1
:1002B0006EEB070C870E920E47EA811742EA831213
:1002C000A7FB0201B6EB0B0164EB00042B0D43EA24
:1002D0000C335E1844EB1C50DA465146E7FB020132
:1002E000C5F313044FEA0B3343EA14534FEA0432C5
:1002F000019C43EA0603A4F10C040294009CCDE99E
:1003000000B400F042F903B0BDE8F08F00200146D0
:10031000F9E72DE9F04D81EA030404F0004B21F0E8
:10032000004514464FF0000A23F0004150EA050250
:1003300020D054EA01021DD0C5F30A570246C5F386
:100340001303C1F31300C1F30A5640F4801543F4BC
:100350008013A7EB0608101BD64608F2FD3873EB96
:10036000050002D308F1010801E092185B41B8F1E1
:10037000000F03DA00200146BDE8F08D00204FF4A5
:100380008011064684460EE0171B73EB050705D364
:10039000121B63EB050306434CEA010C49084FEAC4
:1003A000300092185B4150EA0107EDD152EA030098
:1003B00012D082EA040083EA0501084305D0101B2D
:1003C000AB4106D20122002306E000224FF0004399
:1003D00002E06FF0010253101AEB06004CEB0851DB
:1003E00010EB0A0041EB0B01BDE8F04D00F0BEB888
:1003F0000EB5C10F80EAE0700844CA07002140F240
:1004000033438DE80E000A460B4600F0BEF803B0F9
:1004100000BD00F0004230F000400AD0C10D01F5EF
:100420006071C0F3160042EA0151C208400711434F
:10043000704700200146704701F0004330B421F0BE
:10044000004150EA010206D00A0DA2F56072C1F324
:100450001301002A02DC30BC00207047440F44EA3C
:10046000C104C100E01830BC00EBC25000F047B836
:1004700030B50B46014600202022012409E021FA74
:1004800002F59D4205D303FA02F5491B04FA02F571
:100490002844151EA2F10102F1DC30BD2DE9F05F08
:1004A0000546002092469B468846064681464024E3
:1004B0001BE02846414647462246FFF781FE534649
:1004C0005A46C01A914110D311461846224600F0F0
:1004D00093F92D1A67EB01084F46224601200021AF
:1004E00000F08AF917EB00094E41201EA4F1010427
:1004F000DFDC484631462A464346BDE8F09F0029E6
:10050000A8BF7047401C490008BF20F00100704799
:1005100010B4B0FA80FC00FA0CF050EA010404BFF9
:1005200010BC704749B1CCF1200421FA04F411FA4F
:100530000CF118BF012121430843A3EB0C01CB1D93
:100540004FEA00614FEA102042BF002010BC704704
:1005500000EBC35010440029A4BF10BC7047401CDE
:10056000490008BF20F0010010BC704710B5141EF0
:1005700073F1000408DA401C41F1000192185B415C
:100580001A4301D120F0010010BD2DE9F04D924633
:100590009B4611B1B1FA81F202E0B0FA80F220324A
:1005A000904600F029F904460F4640EA0A0041EA65
:1005B0000B0153465A46084313D0114653EA010033
:1005C00019D0C8F140025046FFF7FAFD05460E4625
:1005D00050465946424600F00FF9084305D0012025
:1005E00004E020463946BDE8F08D0020054346EA88
:1005F000E0762C4337430A986305E40AA0EB080031
:100600000022FD0A44EA47540A3002D50020014680
:10061000E9E7010510196941DDE90845001969415B
:10062000BDE8F04DA2E72DE9FE4F804681EA0300C8
:10063000C00F0C46009021F0004123F00045B8EBBC
:100640000200A94105D24046214690461C460B4671
:10065000024623F00040104347D0270DC7F30A009D
:10066000C3F30A510290401A019040286BDAC3F399
:10067000130040F4801B0098924620B10023D2EB77
:10068000030A63EB0B0B01985946C0F14002504638
:1006900000F0B2F806460D4650465946019A00F061
:1006A000BAF810EB08006141002487EA115284EA8D
:1006B000E7731A4340D0009A62B3019A012A4FEAC5
:1006C000075215DC001B61EB02014FF0004202EA09
:1006D0000752CDE90042001C41F5801132462B46FD
:1006E000FFF753FF03B0BDE8F08F40462146F9E71E
:1006F000001B61EB0201001C41F5801300185B41F7
:100700002018A2F5001747EB030140EAD570B6198F
:100710006D4111E06D084FEA360645EAC0754FEAB3
:100720000752001B61EB0201001C41F580114908D2
:100730004FEA30000019514132462B4603B0BDE864
:10074000F04FFFF713BF0098012240000023D0EBC9
:10075000020263EBE073009821464FEAE074B8EBC5
:10076000000061EB0401E9E783F000435BE781F0FF
:10077000004158E7C1F30A52C1F3130140F2FF33BD
:1007800041F480119A4202DA00200146704740F29B
:1007900033439A42A2F2334202DC5242FFF710BDC9
:1007A00000F02AB830B5041E71F1000404DB4FF0EC
:1007B0000044404264EB0101141E73F1000405DBA8
:1007C0001C464FF00043524263EB0403994208BFBA
:1007D000904230BD064C074D06E0E06840F0010352
:1007E00094E8070098471034AC42F6D3FFF7D0FCEA
:1007F0005C3800087C380008202A04DB203A00FA24
:1008000002F1002070479140C2F1200320FA03F367
:10081000194390407047202A06DBCB17203A41FA53
:1008200002F043EAE07306E041FA02F3D040C2F17D
:1008300020029140084319467047FEE7014800F046
:1008400037B80000080100200B4B016814229942C0
:1008500007D20A4B1944B1FBF2F18900016408493F
:1008600008E0054B5B421944B1FBF2F189000164D9
:1008700001490839C163704708040240F8FFFDBF11
:100880000000024030B590F840500124AC40C56BE8
:100890006C60046863604368102B036803D0996040
:1008A0000068C26030BD9A600068C16030BD7047AA
:1008B000F0B4C16B0D6801680C68066C042202FA82
:1008C00006F32B420FD063070DD50B689B0603D4AC
:1008D0000B6823F004030B6090F840108A40C16B52
:1008E0004A60C16A1BE0022303FA06F72F424FF069
:1008F000000C4FF0010216D0A70714D50C68A4060F
:1009000005D40C6824F00A040C6080F8212090F8CB
:1009100040108B40C16B4B6080F820C0816A002979
:1009200018D0F0BC08470823B3402B4212D023074D
:1009300010D50B6823F00E030B6090F84010C36BCA
:1009400002FA01F15960826380F8212080F820C00A
:10095000016BE4E7F0BC704770B5040021D00220C1
:1009600084F821002268116843F6F0708143D4E9CD
:1009700001031843D4E903352B4318436369184333
:10098000A3691843E3691843084310602046FFF742
:100990005BFF0020A063012184F8211084F820006F
:1009A00070BD012070BD70B5044690F82000002590
:1009B00001280CD0012084F8200094F82160002048
:1009C000012E06D084F820000225284670BD0220A2
:1009D00070BD022684F82160A0632068066826F0B6
:1009E000010606602046FFF74DFFE06A00282068F8
:1009F000016802D041F00E0106E041F00A010160F9
:100A00002068016821F0040101602068016841F05C
:100A100001010160D9E7000070B5044600F0DCF880
:100A20000546601C02D004480078044400F0D4F865
:100A3000401BA042FAD370BD1C0000202DE9F84FE6
:100A4000DFF864B100234FF0010C4FF0030A4FF0C0
:100A50000F090BF1040EA0E00CFA03F6324072D03D
:100A60004C68022C01D0122C0ED1DC0800EB84085B
:100A7000D8F820405D07EF0E09FA07F5AC430D6981
:100A8000BD402543C8F8205007685D0091F80480F8
:100A90000AFA05F408F00308A74308FA05F848EA3B
:100AA0000708C0F800804F68012F05D0022F03D03F
:100AB000112F01D0122F11D18768D1F80C80A743D4
:100AC00008FA05F848EA0708C0F808804768B743FD
:100AD0000E79C6F300169E403E434660C668A643A4
:100AE0008C68AC403443C4604C68E40054D52F4C4F
:100AF000A56945F00105A561A46923F0030504F08B
:100B0000010400942A4C2E19B4689D072F0F09FA8E
:100B100007F5AC43B0F1904F04D0264DA84203D165
:100B2000012512E0002510E0234DA84201D1022545
:100B30000BE0224DA84201D1032506E0204DA8423A
:100B400002D1042501E027E00525BD402543B5601D
:100B5000DBF800405D464E689443F60300D514432D
:100B60002C60DEF8004075464E689443B60300D50D
:100B700014432C600C4D08352C684E689443F602E3
:100B800000D514432C60084D0C352C684E689443F6
:100B9000B60200D514432C605B1C0A6832FA03F4D9
:100BA0007FF45AAFBDE8F88F000401400010024006
:100BB000000001400004004800080048000C004804
:100BC0000010004842694A40426170470AB18161A1
:100BD00070478162704700000148806870470000DC
:100BE0001C00002090F84120202A24D190F84020B9
:100BF000012A20D0012280F84020242280F84120C0
:100C00000268136823F0010313600268136823F479
:100C100080531360026813680B43136001680A680D
:100C200042F001020A60202180F84110002180F882
:100C30004010084670470220704790F84120202A53
:100C400022D190F84020012A1ED0012280F84020B5
:100C5000242280F841200268136823F00103136006
:100C60000268136823F4706343EA0121116001688C
:100C70000A6842F001020A60202180F84110002138
:100C800080F84010084670470220704770B5040095
:100C900004D094F84100002510B106E0012070BD99
:100CA00084F84050204600F04FFA242084F8410098
:100CB0002068016821F0010101606068216820F06E
:100CC000706008612068816821F400418160E068FB
:100CD0000128A06807D040F4044021688860E068DB
:100CE000022803D006E040F40040F6E721684FF404
:100CF0000060486020684168114A114341602068E3
:100D0000C16821F40041C160D4E904010843A1692C
:100D100040EA01202168C860D4E90701084321683E
:100D200008602068016841F00101016065642020CD
:100D300084F84100256384F84250002070BD000013
:100D4000008000022DE9F84F044690F84100DDF8DC
:100D500028A01F4690468B4620287CD194F840005E
:100D600001287FD0012084F84000FFF735FF0646B8
:100D7000012200901923D103204601F03BFA38BB31
:100D8000212084F84100102084F842000025656489
:100D9000C4F8248067856563618D3348FF274FF071
:100DA00080784FF00079FF2903D927853A460090D3
:100DB00031E0618D2185009032E05946204601F0F6
:100DC00003FA31E001F066FA18B1606C042847D0EC
:100DD00018E0606A411C6162216800788862608D59
:100DE000401E6085208D401E0004000C20851BD114
:100DF000608DC8B15346002280212046009601F044
:100E0000F9F910B10320BDE8F88F608DFF2804D9EF
:100E100027853A4600954346CFE7608D20850095AB
:100E200094F828204B46C8E7608D3246002851468A
:100E30002046C7D101F007FA0028C6D1206820213A
:100E4000C16120684368094A1340436084F8411037
:100E500084F8425000E005E084F840500020D2E7DA
:100E60000120D0E70220CEE70020008000E800FE4D
:100E70002DE9FF4F83B00446DDE9108790F841006B
:100E8000DDF848909A469346202874D15FEA08001E
:100E900072D0002F70D094F8400001286BD0012050
:100EA00084F84000FFF798FE0646012200901923BF
:100EB000D103204601F09EF9002874D1222084F845
:100EC0004100402084F8420000256564C4F8248075
:100ED00067856563CDE9009653465A4620460499D6
:100EE00001F002F928B1606C84F8405004285ED00B
:100EF00059E0618D3848FF274FF080784FF0007A35
:100F0000FF2904D927853A464346009005E0618DC4
:100F10002185009094F8282053462046049901F03A
:100F200053F94B46002204212046009601F062F955
:100F3000C8BB2068416A606A421C62620170208DF1
:100F4000401E0004000C2085618DA1F10101618526
:100F50001DD1608DD8B14B460022802120460096DD
:100F600001F048F9F8B9608DFF2806D927853A467F
:100F70004346009507E02CE019E0608D2085009540
:100F800094F8282053462046049901F01DF9608DFD
:100F90000028C6D132464946204601F054F940B1F6
:100FA000606C042803D0032007B0BDE8F08F012057
:100FB000FAE721682020C86121684A68074B1A4077
:100FC0004A6084F8410084F8425084F84050002080
:100FD000EAE70220E8E700000024008000E800FEC5
:100FE0002DE9FF4F83B00446DDE9108790F84100FA
:100FF000DDF848909A469346202870D15FEA0800B1
:101000006ED0002F6CD094F84000012867D00120EA
:1010100084F84000FFF7E0FD064601220090192306
:10102000D103204601F0E6F8002854D1212084F8AD
:101030004100402084F8420000256564C4F8248003
:1010400067856563CDE9009653465A462046049964
:1010500001F082F828B1606C84F8405004286CD00C
:1010600039E0608DFF274FF080784FF0007AFF283D
:1010700004D927853A464346009505E0608D2085D2
:10108000009594F8282053462046049901F09CF8D6
:1010900032464946204601F0FDF818B1606C04283C
:1010A0004BD018E0606A411C616221680078886258
:1010B000608D401E6085208D401E0004000C208540
:1010C00021D1608DF8B14B46002280212046009648
:1010D00001F090F828B1032007B0BDE8F08F2EE0B2
:1010E0002BE0608DFF2804D927853A4643460095BA
:1010F00005E0608D2085009594F828205346204611
:10110000049901F061F8608D0028C1D1324649464A
:10111000204601F098F80028C0D121682020C8613D
:1011200021684A68074B1A404A6084F8410084F8F5
:10113000425084F840500020CEE70120CCE7022046
:10114000CAE7000000E800FEF0B50068104987B06B
:1011500088421AD1C01312240125032604278DE8E2
:10116000F1006946A006FFF769FC80208DE8F100D8
:1011700069460848FFF762FC0748C16941F400115D
:10118000C161C06900F40010059007B0F0BD000017
:1011900000540040000400480010024002488168EA
:1011A00002781144816070471C000020074810B588
:1011B000016841F010010160032000F095F8002063
:1011C00000F006F800F024F8002010BD00200240D6
:1011D00070B50D4D04464FF47A712878B1FBF0F0EC
:1011E0000A490968B1FBF0F000F07BFD48B9102C0A
:1011F00007D200222146501E00F056F800206C60F5
:1012000070BD012070BD00001C00002028000020DF
:101210001E4808B5816941F001018161816901F0D1
:1012200001010091C16941F08051C161C06900F0C4
:1012300080500090072000F057F8002211466FF010
:101240000B0000F031F8002211466FF00A0000F0A8
:101250002BF8002211466FF0090000F025F800225B
:101260001146501F00F020F800221146101F00F018
:101270001BF800221146901E00F016F80022BDE86F
:1012800008401146501E00F00FB800000010024048
:1012900000F01F02012191404009800000F1E02090
:1012A000C0F8001170470000F0B40E4B1B680C46EC
:1012B000C3F30223C3F10705042D00D90425191D2A
:1012C000072901D2002300E0DB1E012606FA05F102
:1012D000491E214099409E40761E16403143F0BC85
:1012E00001F0E8B90CED00E0064900F007020868DB
:1012F0004FF6FF03184040EA0220034A10430860FB
:10130000704700000CED00E00000FA052DE9F84FF1
:1013100004460068804DC0036FD5E8690026C00010
:1013200008D4E86940F08050E861E869012600F0DF
:101330008050009079480168C90512D40168804640
:1013400041F480710160FFF747FC074605E000BFEC
:10135000FFF742FCC01B642835D8D8F80000C00550
:10136000F6D5286A10F4407053D0A18801F440717A
:1013700081424ED0286A4FF4803191FAA1F2B2FA3C
:1013800082F29700664A4FF00108174420F440703B
:10139000C7F8008491FAA1F1B1FA81F102EB810161
:1013A0000023C1F800342862C00732D0FFF714FCD4
:1013B000074641F2883A4FF0020907E0FFF70CFCBC
:1013C000C11B514502D90320BDE8F88F99FAA9F154
:1013D000B1FA81F141F040014846B8EB511F01D10B
:1013E00029680CE090FAA0F1B1FA81F141F04001D6
:1013F000B0EB511F02D1296A01E015E0696A99FA40
:10140000A9F0B0FA80F000F01F0008FA00F21142D3
:10141000D4D0286A616820F44070084328621EB165
:10142000E86920F08050E8612078C00705D0286B7B
:10143000A16820F00300084328632078800705D5C1
:10144000286BE16820F44030084328632078400787
:1014500005D5286B216920F44020084328632078B3
:10146000800605D5286BE16920F010000843286349
:101470002068800305D56868A16B20F480000843CC
:1014800068602078400605D5286B216A20F020008E
:10149000084328632078000705D5286B616920F48C
:1014A0004010084328632078C00605D5286BA16941
:1014B00020F44000084328632088800505D568682B
:1014C000E16A20F40000084368602078000605D532
:1014D000E86A616A20F4F8700843E8622088C00571
:1014E00005D5E86AA16A20F478500843E8622088AC
:1014F000C00405D5286B216B20F480700843286355
:101500002088800405D5286B616B20F400700843A7
:101510002863002058E700000010024000700040DF
:10152000000042422DE9F0470F46050069D04A4EBF
:10153000306800F00700B84209D2306820F0070098
:1015400038433060306800F00700B84259D128783D
:10155000424C800705D56068A96820F0F000084378
:1015600060602878C0073DD06968012001290DD04E
:10157000022923D05FF0020393FAA3F2B2FA82F2B7
:1015800042F02002520904D0226803E04FF40033F5
:10159000F2E7626A93FAA3F3B3FA83F303F01F034B
:1015A000984002422DD0606820F00300084360603C
:1015B000FFF712FB804641F288390CE04FF00073D0
:1015C000DAE700BFFFF708FBA0EB0801494502D9A5
:1015D0000320BDE8F0876068696800F00C00B0EB9C
:1015E000810FEFD1306800F00700B8420BD93068A6
:1015F00020F0070038433060306800F00700B84240
:1016000001D00120E5E72878400705D56068E96842
:1016100020F4E060084360602878000706D5606821
:10162000296920F4605040EAC100606000F052F87F
:101630006168F02292FAA2F201F0F001B2FA82F2AD
:10164000D140074A515CC840064908600020FFF7B6
:10165000BFFD0020BDE70000002002400010024056
:101660004438000828000020014800687047000046
:101670002800002008480949006849684FF4E062E2
:1016800092FAA2F201F4E061B2FA82F2D140044A85
:10169000515CC84070470000280000200010024044
:1016A0005438000808480949006849684FF46052F6
:1016B00092FAA2F201F46051B2FA82F2D140044AE5
:1016C000515CC84070470000280000200010024014
:1016D00054380008144B10B55A68144802F00C0135
:1016E00004291DD008291BD14FF4701494FAA4F4D6
:1016F00002F47011B4FA84F4E1400D4CDB6A615CD1
:101700000F2494FAA4F403F00F03B4FA84F4E34032
:10171000074C1034D203E35C03D5B0FBF3F048432D
:1017200010BD0448484310BD0010024000127A006A
:101730002438000800093D002DE9F84F040071D05D
:101740002078FB4DC0074FF0010625D0686877046C
:10175000C0F38100012807D06868C0F38100022827
:101760001BD16868C00318D597FAA7F0B0FA80F0CB
:1017700040F02000400901D0286800E0686A97FA2C
:10178000A7F1B1FA81F101F01F0106FA01F1084257
:1017900065D060680028D2D061E06068B0F5803F15
:1017A0000BD010B1B0F5A02F17D0286820F48030EE
:1017B0002860286820F4802002E0286840F4803007
:1017C0002860E86AA16820F00F000843E8626068BA
:1017D00020B3FFF701FA80460AE0286840F4802031
:1017E0002860EAE7FFF7F8F9A0EB0800642872D850
:1017F00097FAA7F0B0FA80F040F02000400901D03D
:10180000286800E0686A97FAA7F1B1FA81F101F05F
:101810001F0106FA01F10842E4D020E0FFF7DCF9ED
:10182000804607E0C7E000BFFFF7D6F9A0EB08004D
:101830006428DCD897FAA7F0B0FA80F040F02000D6
:10184000400901D0286800E0686A97FAA7F1B1FA68
:1018500081F101F01F0106FA01F10842E4D120787C
:10186000DFF8D08280074FF0000A4FF0020759D509
:1018700068684FF0F80B10F00C0F07D06868C0F3E1
:10188000810002281BD16868C00318D497FAA7F01A
:10189000B0FA80F040F02000400901D0286800E054
:1018A000686A97FAA7F1B1FA81F101F01F0106FA0F
:1018B00001F108422BD0206901287CD127E0206962
:1018C00088B396FAA6F0B0FA80F048F82060FFF7E7
:1018D00083F9814606E055E1FFF77EF9A0EB0900A8
:1018E000022884D897FAA7F0B0FA80F040F02000E0
:1018F000400901D0286800E0686A97FAA7F1B1FAB8
:1019000081F101F01F0106FA01F10842E4D02868D4
:101910009BFAABF26169B2FA82F220F0F8009140D2
:101920000843286025E0FFE796FAA6F1B1FA81F1B5
:1019300048F821A0FFF750F9814605E0FFF74CF980
:10194000A0EB09000228CCD897FAA7F0B0FA80F0F3
:1019500040F02000400901D0286800E0686A97FA4A
:10196000A7F1B1FA81F101F01F0106FA01F1084275
:10197000E4D1207800076AD5A069A0B396FAA6F052
:10198000B0FA80F008EB8000C0F88064FFF724F91B
:10199000814605E0FFF720F9A0EB09000228A0D856
:1019A00097FAA7F0B0FA80F040F06000B6EB501F55
:1019B00002D128680CE077E197FAA7F0B0FA80F03E
:1019C00040F06000B7EB501F01D1286A00E0686A60
:1019D00097FAA7F1B1FA81F101F01F0106FA01F2BD
:1019E0001042D7D033E0FFE796FAA6F0B0FA80F0C5
:1019F00008EB8000C0F880A4FFF7EEF8814605E010
:101A0000FFF7EAF8A0EB090002289CD897FAA7F0A4
:101A1000B0FA80F040F06000B6EB501F01D12868AA
:101A20000BE097FAA7F0B0FA80F040F06000B7EB57
:101A3000501F01D1286A00E0686A97FAA7F1B1FA4D
:101A400081F101F01F0106FA01F21042D8D120788D
:101A5000400774D5E8694FF00009C00009D4E8696F
:101A600040F08050E861E8694FF0010900F08050D3
:101A7000009031480168C90512D4016841F48071B1
:101A80000160FFF7A9F8834606E000BFFFF7A4F85E
:101A9000A0EB0B00642875D827480068C005F5D571
:101AA000E06801280AD008B1052811D0286A20F082
:101AB00001002862286A20F0040002E0286A40F051
:101AC00001002862E068C8B3FFF786F883460DE09E
:101AD000286A40F004002862F0E700BFFFF77CF8B6
:101AE000A0EB0B0141F2883081424BD897FAA7F066
:101AF000B0FA80F040F04000B6EB501F01D12868EA
:101B00000BE097FAA7F0B0FA80F040F04000B7EB96
:101B1000501F01D1286A00E0686A97FAA7F1B1FA6C
:101B200081F101F01F0106FA01F21042D6D035E032
:101B300000100240000042420070004000E034E02B
:101B4000FFF74AF8834607E0FFF746F8A0EB0B01E2
:101B500041F28830814215D897FAA7F0B0FA80F0A8
:101B600040F04000B6EB501F01D128680CE097FA16
:101B7000A7F0B0FA80F040F04000B7EB501F02D160
:101B8000286A01E083E0686A97FAA7F1B1FA81F167
:101B900001F01F0106FA01F21042D5D1B9F1000F90
:101BA00003D0E86920F08050E861E06980B369689B
:101BB000C1F38101022977D04FF080714F000228D4
:101BC00009D091FAA1F0B0FA80F048F820A0FFF710
:101BD00003F804465EE050468A4691FAA1F1B1FA54
:101BE00081F1C14648F82100FEF7F6FF804605E086
:101BF000FEF7F2FFA0EB0800022848D897FAA7F0FA
:101C0000B0FA80F040F02000400902D0286801E0DE
:101C100056E0686A97FAA7F1B1FA81F101F01F0165
:101C200006FA01F10842E3D1D4E9081008436968D3
:101C300021F47411084368609AFAAAF0B0FA80F0AF
:101C400049F82060FEF7C8FF044604E0FEF7C4FF31
:101C5000001B02281BD897FAA7F0B0FA80F040F0DA
:101C60002000400901D0286800E0686A97FAA7F1CF
:101C7000B1FA81F101F01F0106FA01F10842E5D045
:101C80001EE000BFFEF7A8FF001B022802D90320B8
:101C9000BDE8F88F97FAA7F0B0FA80F040F0200086
:101CA000400902D0286801E00CE0686A97FAA7F1C1
:101CB000B1FA81F101F01F0106FA01F10842E1D108
:101CC0000020E5E70120E3E74FF0E0210428086960
:101CD00003D020F004000861704740F00400FAE7E8
:101CE000704710B5401EB0F1807F01D3012010BDB8
:101CF0004FF0E02460610F21601700F0DBFC002052
:101D0000A06107202061002010BD10B5FFF7E8FF9B
:101D100010BD704710B5040003D094F8690010B1ED
:101D200007E0012010BD002084F86800204600F084
:101D300027F8242084F869002068016821F0010157
:101D40000160204600F036FE0128EBD0606A10B139
:101D5000204600F03DFD2068416821F4904141603B
:101D60002068816821F02A0181602068016841F0C3
:101D7000010101602046BDE8104000F08DBD00006B
:101D800070B506460068194986B088422CD11848BB
:101D9000C16941F40021C161C069002500F400203F
:101DA00005904FF4406000900220CDE9010503202A
:101DB00003900520049069460E48FEF73FFE0F4C45
:101DC0000D48C4E900058020C4E902502561656121
:101DD000A5612046E561FEF7BFFD18B1B42108A05A
:101DE00000F005FF7466666206B070BD004C0040EE
:101DF00000100240000800483004024008010020A2
:101E00002E2E2F5372632F73746D333266337878AE
:101E10005F68616C5F6D73702E63000070B504467F
:101E200090F86A00202839D1A9B3A2B394F86800C9
:101E3000012833D0012084F868006165A4F8582097
:101E40000025E566222084F86A00616E1448134676
:101E50008862616E1348C862616E13480863606EE1
:101E60004563666D216832462431606EFEF79BFD46
:101E700084F868502068016841F48071016020682E
:101E8000816841F0010181602068816841F0400172
:101E90008160002070BDFFE70120FBE70220F9E729
:101EA0003F2900087D290008F528000870B51E4D5F
:101EB0001E4C287838B101282AD1204601F02AFB8F
:101EC0000020287028E020782A2802D1A078232832
:101ED00001D017A01EE060783038192819D818A052
:101EE00000F086FE19211AA000F082FE61781DA084
:101EF000303900F07DFE12A000F07AFE60780B49C8
:101F0000303882B2A1F17000FFF788FF01202870FD
:101F100070BD1AA000F06CFEBDE8704003490322BA
:101F2000A1F17000FFF77ABF00000020EC00002054
:101F3000696E76616C696420434D4421200D0A006E
:101F400053656E6420434D443A200D0A00000000A2
:101F500053697A65206F6620727862756620256CF9
:101F6000750A000053697A65206F66207278627581
:101F7000665B315D20256C750A000000696E766134
:101F80006C69642073697A6521200D0A00000000E5
:101F900070472DE9F843044690F869001F4616463D
:101FA0000D4620284DD1CDB1C6B194F86800012866
:101FB00047D0012084F868004FF00008C4F86C8016
:101FC000212084F869005034FEF706FE24F8026BE5
:101FD000814624F852694FF4805618E00120BDE88C
:101FE000F883B4F85200401EA4F852004B46002279
:101FF00080212046009700F0C7FDA0B9A068B0423C
:1020000001D1206988B115F8010B21680885B4F861
:1020100052000028E5D14B4600224021204600977F
:1020200000F0B2FD30B10320D9E735F8020BC0F360
:102030000800EAE7202084F8690084F8688000201E
:10204000CDE70220CBE7FEE701688A69D243920719
:1020500001D400228A6200688169C943C90703D09C
:10206000816941F001018161704700002DE9F04173
:102070000446006890460E468069C043C0062ED4D0
:102080000025202720688069C043800611D5701C78
:10209000F8D02EB1FEF7A0FDA0EB0800B042F1D9B8
:1020A00084F8417084F8425084F840500320BDE821
:1020B000F08121681020C8612068C7612046FFF7C1
:1020C000C3FF54F8440B4168064A114041600420A4
:1020D00044F820096777A57725770120E7E70020F6
:1020E000E5E7000000E800FE2DE9F8430446164647
:1020F000DDE9089717489846DAB200900023204699
:1021000000F062F83A464946204600F0C3F818B19C
:10211000606C04281CD018E0F5B2B8F1010F09D0AA
:102120002168300A88623A464946204600F0B2F8F3
:102130000028EDD1206885624B46002240212046D0
:10214000009700F057F8002800D00320BDE8F8837E
:102150000120FBE7002000802DE9F84304461646E5
:1021600018489846DDE90897DAB2C3020090204685
:1021700000F02AF83A464946204600F08BF818B19C
:10218000606C04281CD018E0F5B2B8F1010F09D03A
:102190002168300A88623A464946204600F07AF8BB
:1021A0000028EDD1206885624B4600228021204620
:1021B000009700F01FF8002800D00320BDE8F88346
:1021C0000120FBE700200080F0B50568059C6868E9
:1021D0004FF48066064FC1F3090106EA545641EAFE
:1021E00002413E431943B043214308436860F0BDB8
:1021F000FF63FF032DE9F0411D4617460E460446D6
:10220000DDF8188013E0681C11D02DB1FEF7E4FC56
:10221000A0EB0800A8420AD9202084F84100002041
:1022200084F8420084F840000320BDE8F081206873
:10223000806936EA000004D00020B842E3D00020D4
:10224000F3E70120F9E770B516460D4604461AE09B
:10225000324629462046FFF709FF08B1012070BD2C
:1022600025B1FEF7B9FC801BA8420CD954F8440FE5
:1022700040F0200044F80409202060700020A07085
:102280002070032070BD20688069C0438006DFD4C1
:10229000002070BD70B516460D4604461CE032465F
:1022A00029462046FFF7E2FE08B1012070BD681CF8
:1022B00012D025B1FEF790FC801BA8420CD954F82F
:1022C000440F40F0200044F80409202060700020F2
:1022D000A0702070032070BD20688069C043800713
:1022E000DDD4002070BD000037B52DED040B0C4689
:1022F00015462DED048B94B0B0EE418AF0EE608A65
:10230000B0EE409A1CA96846FDF788FF19EE100A46
:10231000FEF77FF841EC100B1EA153EC102B10A818
:1023200000F076FC10A96846FDF75AFF18EE900AF7
:10233000FEF76FF841EC100B16A153EC102B10A810
:1023400000F066FC15A16846FDF74AFF10A9684633
:10235000FDF746FF18EE100AFEF75BF841EC100B94
:102360000CA153EC102B10A800F052FC0BA16846F6
:10237000FDF736FF10A96846FDF732FF29462046D3
:1023800001F08CF9684601F0D5F914B0BDEC048B6E
:1023900007B030BD252E3266000000007C00000032
:1023A0002DE9F04190462DED028B86B00E46074692
:1023B0004FF47A72062103A88DE8070001233B221F
:1023C000D0211A48FEF754FDBDF80E10BDF80C00E0
:1023D00049BA0DB2BDF8101040BA49BA00B20CB2F9
:1023E000FEF706F89FED128B53EC182BFDF71FFF3D
:1023F000FEF722F838602846FDF7FAFF53EC182B59
:10240000FDF715FFFEF718F830602046FDF7F0FFE6
:1024100053EC182BFDF70BFFFEF70EF8C8F8000081
:1024200006B0BDEC028BBDE8F0810000300000205A
:10243000000000000000103F2DE9F04190462DED16
:10244000028B86B00E4607464FF47A72062103A827
:102450008DE8070001234322D0211A48FEF708FD2A
:10246000BDF80E10BDF80C0049BA0DB2BDF8101041
:1024700040BA49BA00B20CB2FDF7BAFF9FED128B19
:1024800053EC182BFDF745FFFDF7D6FF38602846C3
:10249000FDF7AEFF53EC182BFDF73BFFFDF7CCFF2C
:1024A00030602046FDF7A4FF53EC182BFDF731FFF9
:1024B000FDF7C2FFC8F8000006B0BDEC028BBDE816
:1024C000F08100003000002000000000006060404B
:1024D0002DE9F04186B0012504A8CDE900054FF4AF
:1024E0007A742B467522D02102942748FEF7C0FC4F
:1024F0009DF81000DFF89480682812D0012255035F
:10250000294644464046FEF761FB6420FEF784FA04
:10251000002229464FEA0400FEF758FB06B0BDE84A
:10252000F081002703AE8DF80C700096CDE90154C0
:1025300001236B22D0211448FEF752FD07208DF8AD
:102540000C000096CDE9015401231922D0210E4838
:10255000FEF746FD8DF80C700096CDE9015401237D
:102560001C22D0210848FEF73BFD8DF80C70009628
:10257000CDE9015401231B22D0210348FEF730FD91
:102580000122D1024046C7E7300000200010004879
:10259000F0B5234887B0416941F480014161416948
:1025A00001F480010591416941F4003141614169C3
:1025B00001F400310591416941F400114161416923
:1025C00001F400110591416941F400214161416923
:1025D00001F400210591416941F480214161406984
:1025E000104F00F480204FF4F04605900022314651
:1025F0003846FEF7EBFA00240125CDE90054694680
:102600004FF090400294FEF719FA0096CDE901547C
:10261000694638460394FEF711FA07B0F0BD000092
:102620000010024000100048114810B50F49016029
:102630001049416000210122C0E90212016141619B
:102640008161C1610162FEF721FB00B1FEE700215B
:102650000748FEF7C7FA00B1FEE700210448FEF77D
:10266000ECFA002800D0FEE710BD00000054004046
:10267000300000200E0900200C4810B50A49016006
:102680004FF4E1314160002181600C22C160C0E95A
:1026900004128161C16101624162FFF73BFB0028C6
:1026A00000D0FEE710BD0000004C00407C00002080
:1026B000FEE770470907090E002806DA00F00F0050
:1026C00000F1E02080F8141D704700F1E02080F850
:1026D000001470477047704710B5FEF75FFDBDE806
:1026E0001040FFF712BB30B59FB0032001210090CE
:1026F000049110214FF4803000240591CDE90104AC
:102700000225CDE907504FF4E01009906846FFF725
:1027100013F800B1FEE70F20CDE919054FF48060F2
:10272000CDE91B40022119A81D94FEF7FBFE00B164
:10273000FEE728200F940A9011940AA8FEF7E6FD00
:1027400000B1FEE7FEF790FF4FF47A71B0FBF1F0B5
:10275000FFF7C7FA0420FFF7B7FA00221146501E10
:10276000FEF7A2FD1FB030BD1448016841F47001AE
:1027700001601348016841F0010101604168114A9C
:10278000114041600168104A11400160016821F464
:1027900080210160416821F4FE014160C16A21F09D
:1027A0000F01C162016B094A114001630021816080
:1027B0000249C003803908607047000088ED00E0DE
:1027C000001002400CC07FF8FFFFF6FECCFC00FFBB
:1027D00090F82410C90706D001684A68836A22F479
:1027E00000321A434A6090F82410890706D5016820
:1027F0004A68C36A22F480321A434A6090F824106F
:10280000490706D501684A68036B22F480221A43FF
:102810004A6090F82410090706D501684A68436B9E
:1028200022F400421A434A6090F82410C90606D5E3
:1028300001688A68836B22F480521A438A6090F898
:102840002410890606D501688A68C36B22F40052F9
:102850001A438A6090F82410490611D501684A6825
:10286000036C22F480121A434A60016CB1F5801F98
:1028700006D101684A68436C22F4C0021A434A60D8
:1028800090F82410090606D501684A68806C22F485
:10289000002202434A607047F8B500260446C66627
:1028A000FEF79AF90546206800686FF07E4700073A
:1028B00008D52B4600224FF400112046009700F067
:1028C00063F960B92068006840070AD52B460022EA
:1028D0004FF480012046009700F056F908B103201C
:1028E000F8BD202084F8690084F86A0084F86860E4
:1028F0000020F8BD70B5446A94F8690000252128CD
:1029000008D120688068000604D5A4F852502046FB
:1029100000F047F894F86A00222808D120688068FF
:10292000400604D5A4F85A50204600F02CF8E06E7A
:1029300040F01000E0662046FFF7EBF970BD10B5DF
:102940000146406A09680968890614D40021A0F884
:102950005A1001680A6822F480720A6001688A6865
:1029600022F001028A6001688A6822F040028A60CF
:10297000202180F86A10FFF799FA10BD10B5406A5F
:10298000FFF706FB10BD01680A6822F490720A6026
:1029900001688A6822F001028A60202180F86A10AA
:1029A000704701680A6822F0C0020A60202180F89E
:1029B000691070472DE9F041044610202369A26890
:1029C000E6691A436369002133431A4323680D46BD
:1029D0001E6849F20C67BE4316431E6022685368A6
:1029E000E66823F4405333435360236AA2691A43D1
:1029F00023689E6826F4306616439E605A4F22680C
:102A00005A4B0603BA420CD11B6B13F0030306D0DA
:102A1000012B4DD0022B4DD0032B4CD146E0012091
:102A200049E0534FBA420CD11B6B13F440333BD0F7
:102A3000B3423DD0B3F5003F3CD0B3F5403F3AD16F
:102A400034E04C4FBA420DD11B6B13F440232BD012
:102A5000B3F5802F2CD0B3F5002F2BD0B3F5402F3A
:102A600029D123E0444FBA420DD11B6B13F440131C
:102A70001AD0B3F5801F1BD0B3F5001F1AD0B3F5E1
:102A8000401F18D112E03D4FBA4214D11B6B13F412
:102A9000400309D0B3F5800F0AD0B3F5000F09D079
:102AA000B3F5400F07D101E0002004E0022002E06E
:102AB000042000E00820E7694FF400439F4226D13C
:102AC00009281DD2DFE800F00508121C151C1C1C8B
:102AD0001800FEF7CFFD01E0FEF7E4FD410060685D
:102AE00001EB5001B1FBF0F081B20AE024496068CB
:102AF000F6E7FEF7EFFDF1E7606806EB5001F1E75E
:102B0000012521F00F00C1F3420108431CE0092810
:102B100025D2DFE800F005080B24102424241C0033
:102B2000FEF7A8FD09E0FEF7BDFD06E01549606867
:102B300001EB50010EE0FEF7CDFD0146606801EBB0
:102B40005001B1FBF0F080B22168C86008E0606815
:102B500003EB5001B1FBF0F080B2D06000E0012542
:102B60002846BDE8F0810000003801400010024016
:102B70000044004000480040004C0040005000402D
:102B80000024F40000127A002DE9F041984617461F
:102B90000E460446069D1DE0681C1BD02DB1FEF7B5
:102BA0001BF8A0EB0800A84214D92068016821F4A2
:102BB000D07101602068816821F0010181602020CE
:102BC00084F8690084F86A00002084F86800032013
:102BD000BDE8F0812068C06936EA000004D000201A
:102BE000B842D9D00020F3E70120F9E7FEE7FEE77D
:102BF0000FB4054B10B503A9044A029800F0EEF893
:102C000010BC5DF814FB0000A53500082C00002066
:102C10000FB4084B10B504A902AA039800F0DEF81F
:102C2000044602A9002000F070FC204610BC5DF8AC
:102C300014FB00000B35000802E008C8121F08C191
:102C4000002AFAD170477047002001E001C1121F2D
:102C5000002AFBD1704700002DE9FF5F82B0002100
:102C6000DDE90430020DDDF840B0034318D044F62E
:102C70001050A2F2FF3242431514119801281FD0C0
:102C8000A5EB0B00401C5FEA000A4FF000064E4F18
:102C9000DFF83891B046504615D5CAF1000413E06C
:102CA000119801244AA3012801D16FEA0B0102986F
:102CB000119AC0E90031C0E9024206B0BDE8F09FB8
:102CC000CBF10000DFE704460021404A491842EBFF
:102CD0000450CDE9001012E0E00707D032463B4631
:102CE00040464946FDF7A3FA8046894632463B46B0
:102CF00010461946FDF79BFA06460F466410002C55
:102D0000EAD1DDE90401DDE90023BAF1000F06DABA
:102D1000FDF78DFA42464B46FDF789FA05E0FDF7CF
:102D2000F8FA42464B46FDF7F4FA04460E460022F6
:102D3000284BFDF737FD03D84FF0FF30014607E081
:102D40000022254B20463146FDF76DFCFDF712FDB4
:102D5000102409E0002C0ADB0A220023FDF79EFB69
:102D6000039B30321A55641E50EA0102F2D1641CF2
:102D7000039AC4F111031444119A012A03D00122C9
:102D800008430DD10AE0084304D000204FF0110B96
:102D9000119072E7A3EB0B056D1E0DE05B4504DDA2
:102DA0004FF0000205F1010504E003DA4FF00002E4
:102DB000A5F10105002AECD002981199C0E9023171
:102DC000C0E9004579E70000000014400000F03F32
:102DD000300000000000F0430000E03F2DE9FF4F0D
:102DE00095B09B468946064600250FE2252877D1F7
:102DF00000242746F84A0121059400E0044316F810
:102E0000013F203B01FA03F01042F7D130782A2825
:102E100011D06FF02F033078A0F13002092A16D8B4
:102E2000059A44F0020402EB820203EB42021044D2
:102E3000761C0590EFE759F8042B0592002A03DA77
:102E4000504244F40054059044F00204761C30785B
:102E50002E2816D116F8010F44F004042A280DD0AC
:102E60006FF02F023078A0F13003092B09D807EB5F
:102E7000870302EB4303C718761CF3E759F8047B7A
:102E8000761C30786C280FD006DC4C2817D06828C8
:102E90000DD06A2814D104E0742810D07A280FD1FC
:102EA0000DE044F400140AE044F4801401E044F41A
:102EB00040147278824202D104F58014761C761C8C
:102EC000307866280BD013DC582877D009DC00282E
:102ED00075D04528F6D04628F4D047281AD19DE170
:102EE00018E0632835D0642879D0652812D195E19F
:102EF000702873D008DC6728F1D069286FD06E285D
:102F00000DD06F2806D1B5E073282CD0752875D068
:102F1000782874D05A46179990476D1C75E1C4F310
:102F20000250022809D003280DD0D9F80010042837
:102F30000DD00D6009F1040967E1D9F80010EA1716
:102F4000C1E90052F6E7D9F800100D80F2E70D70E4
:102F5000F0E719F8041B8DF8001000208DF801002F
:102F6000EA46012003E059F804AB4FF0FF30610757
:102F70004FF0000102D40DE008F101018846B9428A
:102F80000FDA8045F8DB1AF808100029F4D108E0C0
:102F900008F1010188468142FADB1AF8081000297D
:102FA000F6D105985B46A0EB080721463846179AEC
:102FB00000F094FA284400EB080507E04DE029E111
:102FC0000DE01AF8010B5A4617999047B8F101081D
:102FD000F7D25B4621463846179A13E142E00A22AF
:102FE0000092C4F302524FF0000A022A08D059F8A6
:102FF00004CB032A4FEAEC710AD00DE029E02AE065
:1030000009F1070121F00702F2E802C1914609E047
:103010000FFA8CFC4FEAEC71042A03D14FFA8CFCB6
:103020004FEAEC71002907DA0A460021DCF1000CB6
:1030300061EB02012D2202E0220504D52B228DF83E
:103040000420012203E0E20701D02022F7E79046A6
:1030500059E00A2102E010220DE010214FF0000A91
:1030600000910BE010224FF0000A44F004040827FE
:10307000009203E008224FF0000A0092C4F30252CB
:10308000022A05D059F804CB0021032A08D009E010
:1030900009F1070121F00702F2E802C1914605E0BB
:1030A0001FFA8CFC042A01D10CF0FF0C4FF0000831
:1030B000220728D5702806D0009B83F0100353EA1E
:1030C0000A0305D00EE040228DF80420012208E01A
:1030D0005CEA010206D030228DF804208DF805004C
:1030E00002229046009B83F0080353EA0A030AD1A8
:1030F0005CEA010201D1620705D530228DF8042077
:103100004FF001087F1E582804D034A003900EA869
:1031100002900DE036A0F9E753466046009AFDF7AD
:10312000BDF984460398825C0298401E02900270AA
:103130005CEA0100F0D1029806A9081A00F1200A01
:10314000600702D524F4803400E00127574502DDF2
:10315000A7EB0A0000E0002000EB0A0100900598B0
:103160004144401A0590E00306D45B462146179A75
:10317000059800F0B3F90544002706E001A85A4677
:10318000C05D179990476D1C7F1C4745F6DBE00337
:103190000CD55B462146179A059800F09FF9054427
:1031A00004E030205A46179990476D1C0099481E3C
:1031B00000900029F5DC08E0029802995A46007850
:1031C000491C0291179990476D1CBAF10001AAF1B0
:1031D000010AF1DC65E100000928010030313233D9
:1031E0003435363738396162636465660000000043
:1031F000303132333435363738394142434445462D
:103200000000000000F058F90544761C30780028D2
:103210007FF4ECAD19B02846BDE8F08F620700D40A
:10322000062709F1070222F0070CFCE80223E14619
:1032300003F000485FEA080C02D00FF2702C0DE09A
:103240005FEA045C02D50FF2682C07E05FEAC47CF9
:1032500002D00FF2602C01E0AFF2700C4FF0FF389B
:1032600023F00043CDF850C065280CD006DC45287B
:1032700009D046281DD047283DD13DE0662818D00A
:1032800067287ED138E00021112F01DB112000E0FA
:10329000781CCDE9000106A90EA8FFF7DDFCDDE9E9
:1032A0000F010E9A03910021009207F1010A049187
:1032B0004DE04FF000400097CDE9011006A90EA89F
:1032C000FFF7CAFCDDE90F0203920E9B1199002261
:1032D000DDF80CA00093049211B9791C00EB010AEF
:1032E000B7EB0A0004D4C0F1FF3007F1010A0490E3
:1032F000AAEB0700019044E0012F00DA012700212A
:10330000112F01DD112000E03846CDE9000106A9AA
:103310000EA8FFF7A1FCDDE90F010E9A0391002131
:1033200004910092BA4621070CD40399514500DA62
:103330008A46BAF1010F05DD009AAAF10101515C3C
:10334000302908D0B84202DA10F1040F06DA012160
:10335000CDE9011015E0AAF10101E9E7002805DC3B
:10336000049901440491AAEB000102E0411C51457B
:1033700000DD8A460499401A401C01904FF000403D
:103380000290200704D40198504501DBCDF8048059
:1033900000208DF84F0002980DF14F07B0F1004F5B
:1033A00025D02B200E9002984FF0020800280CDA4E
:1033B000404202902D200E9007E00A210298FDF76E
:1033C00057F83031029007F8011DB8F10001A8F15B
:1033D0000108F2DC02980028EFD1791E0E980870DF
:1033E000307800F0200040F0450007F8020D12A8E8
:1033F000C01B00F107081498007800B1012000EB11
:103400000A01019801EBE07105984144401A401E01
:103410000590E00306D45B462146179A059800F014
:103420005DF805441498007818B15A4617999047EA
:103430006D1CE00324D55B462146179A059800F0E1
:103440004DF805441CE00498002807DBDDE9030182
:10345000884203DD0098405C179901E017993020FD
:103460005A469047049805F10105401C04900198C4
:10347000401E019004D12E205A46179990476D1C8A
:10348000BAF10001AAF1010ADDDC05E017F8010B31
:103490005A46179990476D1CB8F10001A8F1010830
:1034A000F4DC5B462146179A0598ABE62D00000038
:1034B0002B000000200000002DE9F041044600250B
:1034C0001E461746880404D405E039462020B0473C
:1034D0006D1C641EF9D52846BDE8F0812DE9F04148
:1034E000044600251E469046C80301D5302700E05B
:1034F0002027880404D505E041463846B0476D1CB6
:10350000641EF9D52846BDE8F0810A68531C0B609B
:103510001070704770B506460FA1FCF76DFE104D98
:103520004FF4804430B1012221462846FDF74EFB7E
:103530000CA00CE00FA13046FCF75EFE30B100227B
:1035400021462846FDF742FB0CA000E010A0BDE894
:103550007040FFF74DBB00004C4544204F4E00002B
:10356000001000484C45445F4F52414E4745204FA4
:103570004E0D0A004C4544204F4646004C45445FE2
:103580004F52414E4745204F46460D0A000000006D
:10359000496E76616C696420436F6D6D616E642164
:1035A0000D0A000013B54FF6FF7301226946024869
:1035B000FEF7EFFC00981CBD7C00002010B500F069
:1035C00025F80021084600F069F809A000F0B2F8DB
:1035D0004FF47A70FDF720FA00F018F8002101206E
:1035E00000F05CF8BDE8104004A000F0A3B80000B3
:1035F00048656C6C6F20576F726C64006974277338
:1036000020776F726B696E670000000010B5802034
:1036100000F050F80024202000F06CF8641C462CC8
:10362000F9DB10BD10B53220FDF7F6F9302000F0BF
:1036300041F80520FDF7F0F9302000F03BF80120BB
:10364000FDF7EAF9302000F035F80A20FDF7E4F93B
:10365000202000F02FF80A20FDF7DEF9282000F0E6
:1036600029F80120FDF7D8F9082000F023F80120FF
:10367000FDF7D2F9012000F01DF80120FDF7CCF98B
:103680000120FDF7C9F9062000F014F80120FDF72C
:10369000C3F9BDE810400C2000F00CB810B10128AF
:1036A00005D102E041F0800101E041F0C001C8B263
:1036B000AFF300801CB500F0F00141F00C028DF872
:1036C000042041F0080100018DF8051040F00C01C4
:1036D0008DF8061040F008008DF807006420009077
:1036E000042301AA4E210248FDF72CFB1CBD00005B
:1036F000300000201CB500F0F00141F00D028DF803
:10370000042041F0090100018DF8051040F00D0181
:103710008DF8061040F009008DF807006420009035
:10372000042301AA4E210248FDF70CFB1CBD00003A
:103730003000002010B5044602E0641CFFF7DAFFF9
:1037400020780028F9D110BD08B5FDF72FFDFEF750
:10375000CAFFFEF71DFF2848416941F0020141619F
:103760004069002200F00200009011463A20FDF767
:103770009BFD3A20FDF78CFDFEF77EFFFEF754FF20
:10378000FFF750FFFEF7A4FE1CA0FFF731FA224915
:103790000322A1F17000FEF741FBFFF70FFF1F4C62
:1037A0001F4E4FF480551D4A0C32111F081FFEF7A3
:1037B000F7FD1A4A1832111F081FFEF73DFEFFF7EA
:1037C00025FF241D002294EC030A11464120241FEA
:1037D000FEF78AFD1034002294EC030A01214720F1
:1037E000103CFEF781FD29463046FDF7EBF9C82075
:1037F000FDF712F9D7E70000001002407374617200
:1038000074696E67206170706C69636174696F6E52
:103810002E2E2E0A00000000EC00002000000020E8
:103820000010004802030405060708090A0B0C0DE6
:103830000E0F10100102030405060708090A0B0CFD
:103840000D0E0F1000000000000000000102030434
:103850000607080900000000010203047C38000884
:103860000000002030000000382C0008AC380008B0
:103870003000002020050000482C00080000000057
:103880000000000000000000000000000000000038
:103890000000000000000000010000001000000017
:0C38A0000000000000127A000000000090
:040000050800018965
:00000001FF
